:100000009000797590007580007EE6D2B5758961A3
:10001000758B00758D00D28E758C00758A00D28C20
:10002000308DFDC28CC28DDEEFC28EC28DC28F11AB
:100030003380D67DFCE58B75F004A475F06484D222
:10004000901176F58011711171E5F075F00A84C296
:1000500090D2911176F58011711171E5F0C291D2B3
:10006000921176F58011711171C292DDC87580FF11
:10007000227FFADFFE2293F4223F065B4F666D7DFE
:03008000077F6F88
:00000001FF
